:1000000000308A00F928000027308400831300089C
:10001000031918280130F800F701F70B0D28F80B29
:100020000C284A30F700F70B13281628800B0A28F3
:100030000800AB012B08073C031C3628AA1F252803
:1000400083160610831206142928831606108312BD
:1000500006108316861083128614000083168610FD
:10006000831286100310AA0DAB0A1A280800831603
:100070000611831206112808AA0019202908AA00CF
:100080001920831606118312061508008316061020
:1000900083120610831686108312861083160611AB
:1000A00083120615F8308316860032308312A700BB
:1000B00004200F30A800A90137200C30A80001301F
:1000C000A90037200B30A8000330A90037200A30E0
:1000D000A8000F30A90037200930A800FF30A90080
:1000E00037200130A8000F30A90037200230A800C7
:1000F0000F30A90037200330A8000F30A9003720A7
:100100000430A8000F30A90037208A110A121529DF
:10011000A208031DB5288316091483120918932811
:100120003C30A60095286A30A600831689148312F5
:100130008918A52820084F3C031CA5280130A200DF
:10014000A101A401A301A501B428831609158312F6
:100150000919B42820084F3C0318B4280230A20023
:10016000A101A401A301A501E1286430A30703189C
:10017000A40A6430A5072408023C0318C928FF3AE2
:10018000031DC6282308E73C0318C928A10AA401B7
:10019000A30126082502031CE128A501220BD9286A
:1001A000A00A20084F3C0318D8285030A000A20114
:1001B000E128A0032008143C031CE1281430A0000F
:1001C000A2018A110A1226292908F8012802031817
:1001D000EC282808F700F828F7010830AA00A80D35
:1001E000F70D290877020318F700F80DAA0BEF287E
:1001F000080003081F398300A001A101A201A40186
:10020000A301A5013C30A60083161F149F141F15DF
:100210009F1107309C0083131F149F141F159F11FB
:10022000091489140915831246280130A800A90170
:1002300037200230A800A90137200330A800A90107
:1002400037200430A800A901372088282008A800FA
:100250000A30A900E4207708A7000130A800770839
:10026000A90037202008A8000A30A900E420780857
:10027000A8000A30A900E4207708A7000230A800EF
:100280007708A90037202108A8000A30A900E42037
:100290007708A7000330A8007708A90037202108B5
:1002A000A8000A30A900E4207808A8000A30A900B4
:1002B000E4207708A7000430A8007708A9003720B9
:0A02C0006430A70004202529630024
:02400E007A3FF7
:00000001FF
;PIC16F877A
;CRC=5E1D  CREATED="23-nov.-25 23:53"
