:1000000000308A0087280000A4012408073C031C54
:100010002328A31F10288316061083120614142801
:100020008316061083120610831686108312861418
:1000300019281A28000083168610831286100310D0
:10004000A30DA40A052808008316061183120611C1
:100050002108A30004202208A3000420831606110F
:10006000831206150800F830831686001F149F14AB
:100070001F159F1183121F1083160610831206107E
:1000800083168610831286108316061183120615B6
:100090003230A100213084008313000803195D2849
:1000A0000630F800F701F70B5328F80B52287B3085
:1000B000F700F70B5928800B50280F30A100A20140
:1000C00024200C30A1000130A20024200B30A1001C
:1000D0000330A20024200A30A1000830A20024200E
:1000E0000930A1000F30A20024208A110A1295289D
:1000F00083161F149F141F159F1183121F10831640
:1001000009148914091583128A110A129628030802
:100110001F398300201083161F149F141F159F1171
:1001200007309C0083138312332878280130A10004
:10013000A20024200230A100A20024200330A1004C
:10014000A20024200430A100A2002420A6286300DD
:02400E007A3FF7
:00000001FF
;PIC16F877A
;CRC=968B  CREATED="19-nov.-25 16:52"
